{
  "contractName": "ExerciceSolution",
  "abi": [
    {
      "inputs": [
        {
          "internalType": "string",
          "name": "name_",
          "type": "string"
        },
        {
          "internalType": "string",
          "name": "symbol_",
          "type": "string"
        }
      ],
      "stateMutability": "nonpayable",
      "type": "constructor"
    },
    {
      "anonymous": false,
      "inputs": [
        {
          "indexed": true,
          "internalType": "address",
          "name": "owner",
          "type": "address"
        },
        {
          "indexed": true,
          "internalType": "address",
          "name": "approved",
          "type": "address"
        },
        {
          "indexed": true,
          "internalType": "uint256",
          "name": "tokenId",
          "type": "uint256"
        }
      ],
      "name": "Approval",
      "type": "event"
    },
    {
      "anonymous": false,
      "inputs": [
        {
          "indexed": true,
          "internalType": "address",
          "name": "owner",
          "type": "address"
        },
        {
          "indexed": true,
          "internalType": "address",
          "name": "operator",
          "type": "address"
        },
        {
          "indexed": false,
          "internalType": "bool",
          "name": "approved",
          "type": "bool"
        }
      ],
      "name": "ApprovalForAll",
      "type": "event"
    },
    {
      "anonymous": false,
      "inputs": [
        {
          "indexed": true,
          "internalType": "address",
          "name": "from",
          "type": "address"
        },
        {
          "indexed": true,
          "internalType": "address",
          "name": "to",
          "type": "address"
        },
        {
          "indexed": true,
          "internalType": "uint256",
          "name": "tokenId",
          "type": "uint256"
        }
      ],
      "name": "Transfer",
      "type": "event"
    },
    {
      "inputs": [
        {
          "internalType": "address",
          "name": "to",
          "type": "address"
        },
        {
          "internalType": "uint256",
          "name": "tokenId",
          "type": "uint256"
        }
      ],
      "name": "approve",
      "outputs": [],
      "stateMutability": "nonpayable",
      "type": "function"
    },
    {
      "inputs": [
        {
          "internalType": "address",
          "name": "owner",
          "type": "address"
        }
      ],
      "name": "balanceOf",
      "outputs": [
        {
          "internalType": "uint256",
          "name": "",
          "type": "uint256"
        }
      ],
      "stateMutability": "view",
      "type": "function",
      "constant": true
    },
    {
      "inputs": [],
      "name": "baseURI",
      "outputs": [
        {
          "internalType": "string",
          "name": "",
          "type": "string"
        }
      ],
      "stateMutability": "view",
      "type": "function",
      "constant": true
    },
    {
      "inputs": [
        {
          "internalType": "address",
          "name": "",
          "type": "address"
        }
      ],
      "name": "breeders",
      "outputs": [
        {
          "internalType": "bool",
          "name": "",
          "type": "bool"
        }
      ],
      "stateMutability": "view",
      "type": "function",
      "constant": true
    },
    {
      "inputs": [
        {
          "internalType": "uint256",
          "name": "tokenId",
          "type": "uint256"
        }
      ],
      "name": "getApproved",
      "outputs": [
        {
          "internalType": "address",
          "name": "",
          "type": "address"
        }
      ],
      "stateMutability": "view",
      "type": "function",
      "constant": true
    },
    {
      "inputs": [
        {
          "internalType": "address",
          "name": "owner",
          "type": "address"
        },
        {
          "internalType": "address",
          "name": "operator",
          "type": "address"
        }
      ],
      "name": "isApprovedForAll",
      "outputs": [
        {
          "internalType": "bool",
          "name": "",
          "type": "bool"
        }
      ],
      "stateMutability": "view",
      "type": "function",
      "constant": true
    },
    {
      "inputs": [
        {
          "internalType": "uint256",
          "name": "",
          "type": "uint256"
        }
      ],
      "name": "legs",
      "outputs": [
        {
          "internalType": "uint256",
          "name": "",
          "type": "uint256"
        }
      ],
      "stateMutability": "view",
      "type": "function",
      "constant": true
    },
    {
      "inputs": [],
      "name": "name",
      "outputs": [
        {
          "internalType": "string",
          "name": "",
          "type": "string"
        }
      ],
      "stateMutability": "view",
      "type": "function",
      "constant": true
    },
    {
      "inputs": [
        {
          "internalType": "uint256",
          "name": "",
          "type": "uint256"
        }
      ],
      "name": "names",
      "outputs": [
        {
          "internalType": "string",
          "name": "",
          "type": "string"
        }
      ],
      "stateMutability": "view",
      "type": "function",
      "constant": true
    },
    {
      "inputs": [
        {
          "internalType": "uint256",
          "name": "",
          "type": "uint256"
        }
      ],
      "name": "onAuction",
      "outputs": [
        {
          "internalType": "bool",
          "name": "",
          "type": "bool"
        }
      ],
      "stateMutability": "view",
      "type": "function",
      "constant": true
    },
    {
      "inputs": [
        {
          "internalType": "uint256",
          "name": "tokenId",
          "type": "uint256"
        }
      ],
      "name": "ownerOf",
      "outputs": [
        {
          "internalType": "address",
          "name": "",
          "type": "address"
        }
      ],
      "stateMutability": "view",
      "type": "function",
      "constant": true
    },
    {
      "inputs": [
        {
          "internalType": "uint256",
          "name": "",
          "type": "uint256"
        }
      ],
      "name": "prices",
      "outputs": [
        {
          "internalType": "uint256",
          "name": "",
          "type": "uint256"
        }
      ],
      "stateMutability": "view",
      "type": "function",
      "constant": true
    },
    {
      "inputs": [
        {
          "internalType": "address",
          "name": "from",
          "type": "address"
        },
        {
          "internalType": "address",
          "name": "to",
          "type": "address"
        },
        {
          "internalType": "uint256",
          "name": "tokenId",
          "type": "uint256"
        }
      ],
      "name": "safeTransferFrom",
      "outputs": [],
      "stateMutability": "nonpayable",
      "type": "function"
    },
    {
      "inputs": [
        {
          "internalType": "address",
          "name": "from",
          "type": "address"
        },
        {
          "internalType": "address",
          "name": "to",
          "type": "address"
        },
        {
          "internalType": "uint256",
          "name": "tokenId",
          "type": "uint256"
        },
        {
          "internalType": "bytes",
          "name": "_data",
          "type": "bytes"
        }
      ],
      "name": "safeTransferFrom",
      "outputs": [],
      "stateMutability": "nonpayable",
      "type": "function"
    },
    {
      "inputs": [
        {
          "internalType": "address",
          "name": "operator",
          "type": "address"
        },
        {
          "internalType": "bool",
          "name": "approved",
          "type": "bool"
        }
      ],
      "name": "setApprovalForAll",
      "outputs": [],
      "stateMutability": "nonpayable",
      "type": "function"
    },
    {
      "inputs": [
        {
          "internalType": "uint256",
          "name": "",
          "type": "uint256"
        }
      ],
      "name": "sex",
      "outputs": [
        {
          "internalType": "uint256",
          "name": "",
          "type": "uint256"
        }
      ],
      "stateMutability": "view",
      "type": "function",
      "constant": true
    },
    {
      "inputs": [
        {
          "internalType": "bytes4",
          "name": "interfaceId",
          "type": "bytes4"
        }
      ],
      "name": "supportsInterface",
      "outputs": [
        {
          "internalType": "bool",
          "name": "",
          "type": "bool"
        }
      ],
      "stateMutability": "view",
      "type": "function",
      "constant": true
    },
    {
      "inputs": [],
      "name": "symbol",
      "outputs": [
        {
          "internalType": "string",
          "name": "",
          "type": "string"
        }
      ],
      "stateMutability": "view",
      "type": "function",
      "constant": true
    },
    {
      "inputs": [
        {
          "internalType": "uint256",
          "name": "index",
          "type": "uint256"
        }
      ],
      "name": "tokenByIndex",
      "outputs": [
        {
          "internalType": "uint256",
          "name": "",
          "type": "uint256"
        }
      ],
      "stateMutability": "view",
      "type": "function",
      "constant": true
    },
    {
      "inputs": [
        {
          "internalType": "address",
          "name": "owner",
          "type": "address"
        },
        {
          "internalType": "uint256",
          "name": "index",
          "type": "uint256"
        }
      ],
      "name": "tokenOfOwnerByIndex",
      "outputs": [
        {
          "internalType": "uint256",
          "name": "",
          "type": "uint256"
        }
      ],
      "stateMutability": "view",
      "type": "function",
      "constant": true
    },
    {
      "inputs": [
        {
          "internalType": "uint256",
          "name": "tokenId",
          "type": "uint256"
        }
      ],
      "name": "tokenURI",
      "outputs": [
        {
          "internalType": "string",
          "name": "",
          "type": "string"
        }
      ],
      "stateMutability": "view",
      "type": "function",
      "constant": true
    },
    {
      "inputs": [],
      "name": "totalSupply",
      "outputs": [
        {
          "internalType": "uint256",
          "name": "",
          "type": "uint256"
        }
      ],
      "stateMutability": "view",
      "type": "function",
      "constant": true
    },
    {
      "inputs": [
        {
          "internalType": "address",
          "name": "from",
          "type": "address"
        },
        {
          "internalType": "address",
          "name": "to",
          "type": "address"
        },
        {
          "internalType": "uint256",
          "name": "tokenId",
          "type": "uint256"
        }
      ],
      "name": "transferFrom",
      "outputs": [],
      "stateMutability": "nonpayable",
      "type": "function"
    },
    {
      "inputs": [
        {
          "internalType": "uint256",
          "name": "",
          "type": "uint256"
        }
      ],
      "name": "wings",
      "outputs": [
        {
          "internalType": "bool",
          "name": "",
          "type": "bool"
        }
      ],
      "stateMutability": "view",
      "type": "function",
      "constant": true
    },
    {
      "inputs": [
        {
          "internalType": "address",
          "name": "_to",
          "type": "address"
        }
      ],
      "name": "mint",
      "outputs": [],
      "stateMutability": "nonpayable",
      "type": "function"
    },
    {
      "inputs": [
        {
          "internalType": "address",
          "name": "_to",
          "type": "address"
        }
      ],
      "name": "mintAndPutForSale",
      "outputs": [],
      "stateMutability": "nonpayable",
      "type": "function"
    },
    {
      "inputs": [],
      "name": "getActualIdx",
      "outputs": [
        {
          "internalType": "uint256",
          "name": "",
          "type": "uint256"
        }
      ],
      "stateMutability": "view",
      "type": "function",
      "constant": true
    },
    {
      "inputs": [
        {
          "internalType": "address",
          "name": "account",
          "type": "address"
        }
      ],
      "name": "isBreeder",
      "outputs": [
        {
          "internalType": "bool",
          "name": "",
          "type": "bool"
        }
      ],
      "stateMutability": "nonpayable",
      "type": "function"
    },
    {
      "inputs": [],
      "name": "registrationPrice",
      "outputs": [
        {
          "internalType": "uint256",
          "name": "",
          "type": "uint256"
        }
      ],
      "stateMutability": "nonpayable",
      "type": "function"
    },
    {
      "inputs": [],
      "name": "registerMeAsBreeder",
      "outputs": [],
      "stateMutability": "payable",
      "type": "function",
      "payable": true
    },
    {
      "inputs": [
        {
          "internalType": "address",
          "name": "owner",
          "type": "address"
        },
        {
          "internalType": "uint256",
          "name": "sex_",
          "type": "uint256"
        },
        {
          "internalType": "uint256",
          "name": "legs_",
          "type": "uint256"
        },
        {
          "internalType": "bool",
          "name": "wings_",
          "type": "bool"
        },
        {
          "internalType": "string",
          "name": "name_",
          "type": "string"
        }
      ],
      "name": "declareAnimalToOwner",
      "outputs": [
        {
          "internalType": "uint256",
          "name": "",
          "type": "uint256"
        }
      ],
      "stateMutability": "nonpayable",
      "type": "function"
    },
    {
      "inputs": [
        {
          "internalType": "uint256",
          "name": "sex_",
          "type": "uint256"
        },
        {
          "internalType": "uint256",
          "name": "legs_",
          "type": "uint256"
        },
        {
          "internalType": "bool",
          "name": "wings_",
          "type": "bool"
        },
        {
          "internalType": "string",
          "name": "name_",
          "type": "string"
        }
      ],
      "name": "declareAnimal",
      "outputs": [
        {
          "internalType": "uint256",
          "name": "",
          "type": "uint256"
        }
      ],
      "stateMutability": "nonpayable",
      "type": "function"
    },
    {
      "inputs": [
        {
          "internalType": "uint256",
          "name": "animalNumber",
          "type": "uint256"
        }
      ],
      "name": "getAnimalCharacteristics",
      "outputs": [
        {
          "internalType": "string",
          "name": "_name",
          "type": "string"
        },
        {
          "internalType": "bool",
          "name": "_wings",
          "type": "bool"
        },
        {
          "internalType": "uint256",
          "name": "_legs",
          "type": "uint256"
        },
        {
          "internalType": "uint256",
          "name": "_sex",
          "type": "uint256"
        }
      ],
      "stateMutability": "nonpayable",
      "type": "function"
    },
    {
      "inputs": [
        {
          "internalType": "uint256",
          "name": "animalNumber",
          "type": "uint256"
        }
      ],
      "name": "declareDeadAnimal",
      "outputs": [],
      "stateMutability": "nonpayable",
      "type": "function"
    },
    {
      "inputs": [
        {
          "internalType": "uint256",
          "name": "animalNumbregistrationPriceer",
          "type": "uint256"
        }
      ],
      "name": "isAnimalForSale",
      "outputs": [
        {
          "internalType": "bool",
          "name": "",
          "type": "bool"
        }
      ],
      "stateMutability": "view",
      "type": "function",
      "constant": true
    },
    {
      "inputs": [
        {
          "internalType": "uint256",
          "name": "animalNumber",
          "type": "uint256"
        }
      ],
      "name": "animalPrice",
      "outputs": [
        {
          "internalType": "uint256",
          "name": "",
          "type": "uint256"
        }
      ],
      "stateMutability": "view",
      "type": "function",
      "constant": true
    },
    {
      "inputs": [
        {
          "internalType": "uint256",
          "name": "animalNumber",
          "type": "uint256"
        }
      ],
      "name": "buyAnimal",
      "outputs": [],
      "stateMutability": "payable",
      "type": "function",
      "payable": true
    },
    {
      "inputs": [
        {
          "internalType": "uint256",
          "name": "animalNumber",
          "type": "uint256"
        },
        {
          "internalType": "uint256",
          "name": "price",
          "type": "uint256"
        }
      ],
      "name": "offerForSale",
      "outputs": [],
      "stateMutability": "nonpayable",
      "type": "function"
    }
  ],
  "bytecode": "0x60806040523480156200001157600080fd5b50604051620041c5380380620041c5833981810160405260408110156200003757600080fd5b81019080805160405193929190846401000000008211156200005857600080fd5b838201915060208201858111156200006f57600080fd5b82518660018202830111640100000000821117156200008d57600080fd5b8083526020830192505050908051906020019080838360005b83811015620000c3578082015181840152602081019050620000a6565b50505050905090810190601f168015620000f15780820380516001836020036101000a031916815260200191505b50604052602001805160405193929190846401000000008211156200011557600080fd5b838201915060208201858111156200012c57600080fd5b82518660018202830111640100000000821117156200014a57600080fd5b8083526020830192505050908051906020019080838360005b838110156200018057808201518184015260208101905062000163565b50505050905090810190601f168015620001ae5780820380516001836020036101000a031916815260200191505b506040525050508181620001cf6301ffc9a760e01b6200025b60201b60201c565b8160069080519060200190620001e792919062000364565b5080600790805190602001906200020092919062000364565b50620002196380ac58cd60e01b6200025b60201b60201c565b62000231635b5e139f60e01b6200025b60201b60201c565b6200024963780e9d6360e01b6200025b60201b60201c565b50506000600a81905550505062000413565b63ffffffff60e01b817bffffffffffffffffffffffffffffffffffffffffffffffffffffffff19161415620002f8576040517f08c379a000000000000000000000000000000000000000000000000000000000815260040180806020018281038252601c8152602001807f4552433136353a20696e76616c696420696e746572666163652069640000000081525060200191505060405180910390fd5b6001600080837bffffffffffffffffffffffffffffffffffffffffffffffffffffffff19167bffffffffffffffffffffffffffffffffffffffffffffffffffffffff1916815260200190815260200160002060006101000a81548160ff02191690831515021790555050565b828054600181600116156101000203166002900490600052602060002090601f016020900481019282601f10620003a757805160ff1916838001178555620003d8565b82800160010185558215620003d8579182015b82811115620003d7578251825591602001919060010190620003ba565b5b509050620003e79190620003eb565b5090565b6200041091905b808211156200040c576000816000905550600101620003f2565b5090565b90565b613da280620004236000396000f3fe6080604052600436106102255760003560e01c80634f6ccce711610123578063a22cb465116100ab578063c7b9cb0b1161006f578063c7b9cb0b1461104d578063c87b56dd146110b6578063de6864181461116a578063e985e9c514611195578063ec8977721461121e57610225565b8063a22cb46514610d6f578063b75e075014610dcc578063b88d4fde14610e99578063bc31c1c114610fab578063c5f51f7314610ffa57610225565b80636c0360eb116100f25780636c0360eb14610b5457806370a0823114610be457806377386df314610c4957806389b124af14610c8e57806395d89b4114610cdf57610225565b80634f6ccce7146109e6578063508713f014610a355780636352211e14610a885780636a62784214610b0357610225565b806321658658116101b15780633573dbd1116101755780633573dbd11461080b57806337eb130c1461085a57806341d30bae146108ad57806342842e0e146108b75780634622ab031461093257610225565b806321658658146105d3578063229fbb56146105fe57806323b872dd146106675780632f745c59146106e257806332b0f3761461075157610225565b8063095ea7b3116101f8578063095ea7b3146103f657806318160ddd14610451578063197d4fc61461047c5780631a14e94a146104cb5780631d600102146104f957610225565b806301ffc9a71461022a57806306fdde031461029c578063081812fc1461032c578063083e24e4146103a7575b600080fd5b34801561023657600080fd5b506102826004803603602081101561024d57600080fd5b8101908080357bffffffffffffffffffffffffffffffffffffffffffffffffffffffff19169060200190929190505050611259565b604051808215151515815260200191505060405180910390f35b3480156102a857600080fd5b506102b16112c0565b6040518080602001828103825283818151815260200191508051906020019080838360005b838110156102f15780820151818401526020810190506102d6565b50505050905090810190601f16801561031e5780820380516001836020036101000a031916815260200191505b509250505060405180910390f35b34801561033857600080fd5b506103656004803603602081101561034f57600080fd5b8101908080359060200190929190505050611362565b604051808273ffffffffffffffffffffffffffffffffffffffff1673ffffffffffffffffffffffffffffffffffffffff16815260200191505060405180910390f35b3480156103b357600080fd5b506103e0600480360360208110156103ca57600080fd5b81019080803590602001909291905050506113fd565b6040518082815260200191505060405180910390f35b34801561040257600080fd5b5061044f6004803603604081101561041957600080fd5b81019080803573ffffffffffffffffffffffffffffffffffffffff16906020019092919080359060200190929190505050611415565b005b34801561045d57600080fd5b50610466611559565b6040518082815260200191505060405180910390f35b34801561048857600080fd5b506104b56004803603602081101561049f57600080fd5b810190808035906020019092919050505061156a565b6040518082815260200191505060405180910390f35b6104f7600480360360208110156104e157600080fd5b8101908080359060200190929190505050611582565b005b34801561050557600080fd5b506105bd600480360360a081101561051c57600080fd5b81019080803573ffffffffffffffffffffffffffffffffffffffff16906020019092919080359060200190929190803590602001909291908035151590602001909291908035906020019064010000000081111561057957600080fd5b82018360208201111561058b57600080fd5b803590602001918460018302840111640100000000831117156105ad57600080fd5b909192939192939050505061162b565b6040518082815260200191505060405180910390f35b3480156105df57600080fd5b506105e86116cb565b6040518082815260200191505060405180910390f35b34801561060a57600080fd5b5061064d6004803603602081101561062157600080fd5b81019080803573ffffffffffffffffffffffffffffffffffffffff1690602001909291905050506116d4565b604051808215151515815260200191505060405180910390f35b34801561067357600080fd5b506106e06004803603606081101561068a57600080fd5b81019080803573ffffffffffffffffffffffffffffffffffffffff169060200190929190803573ffffffffffffffffffffffffffffffffffffffff169060200190929190803590602001909291905050506116f4565b005b3480156106ee57600080fd5b5061073b6004803603604081101561070557600080fd5b81019080803573ffffffffffffffffffffffffffffffffffffffff1690602001909291908035906020019092919050505061176a565b6040518082815260200191505060405180910390f35b34801561075d57600080fd5b506107f56004803603608081101561077457600080fd5b810190808035906020019092919080359060200190929190803515159060200190929190803590602001906401000000008111156107b157600080fd5b8201836020820111156107c357600080fd5b803590602001918460018302840111640100000000831117156107e557600080fd5b90919293919293905050506117c5565b6040518082815260200191505060405180910390f35b34801561081757600080fd5b506108446004803603602081101561082e57600080fd5b8101908080359060200190929190505050611864565b6040518082815260200191505060405180910390f35b34801561086657600080fd5b506108936004803603602081101561087d57600080fd5b8101908080359060200190929190505050611881565b604051808215151515815260200191505060405180910390f35b6108b56118a1565b005b3480156108c357600080fd5b50610930600480360360608110156108da57600080fd5b81019080803573ffffffffffffffffffffffffffffffffffffffff169060200190929190803573ffffffffffffffffffffffffffffffffffffffff169060200190929190803590602001909291905050506118fb565b005b34801561093e57600080fd5b5061096b6004803603602081101561095557600080fd5b810190808035906020019092919050505061191b565b6040518080602001828103825283818151815260200191508051906020019080838360005b838110156109ab578082015181840152602081019050610990565b50505050905090810190601f1680156109d85780820380516001836020036101000a031916815260200191505b509250505060405180910390f35b3480156109f257600080fd5b50610a1f60048036036020811015610a0957600080fd5b81019080803590602001909291905050506119cb565b6040518082815260200191505060405180910390f35b348015610a4157600080fd5b50610a6e60048036036020811015610a5857600080fd5b81019080803590602001909291905050506119ee565b604051808215151515815260200191505060405180910390f35b348015610a9457600080fd5b50610ac160048036036020811015610aab57600080fd5b8101908080359060200190929190505050611a0e565b604051808273ffffffffffffffffffffffffffffffffffffffff1673ffffffffffffffffffffffffffffffffffffffff16815260200191505060405180910390f35b348015610b0f57600080fd5b50610b5260048036036020811015610b2657600080fd5b81019080803573ffffffffffffffffffffffffffffffffffffffff169060200190929190505050611a45565b005b348015610b6057600080fd5b50610b69611a65565b6040518080602001828103825283818151815260200191508051906020019080838360005b83811015610ba9578082015181840152602081019050610b8e565b50505050905090810190601f168015610bd65780820380516001836020036101000a031916815260200191505b509250505060405180910390f35b348015610bf057600080fd5b50610c3360048036036020811015610c0757600080fd5b81019080803573ffffffffffffffffffffffffffffffffffffffff169060200190929190505050611b07565b6040518082815260200191505060405180910390f35b348015610c5557600080fd5b50610c8c60048036036040811015610c6c57600080fd5b810190808035906020019092919080359060200190929190505050611bdc565b005b348015610c9a57600080fd5b50610cdd60048036036020811015610cb157600080fd5b81019080803573ffffffffffffffffffffffffffffffffffffffff169060200190929190505050611c64565b005b348015610ceb57600080fd5b50610cf4611ccd565b6040518080602001828103825283818151815260200191508051906020019080838360005b83811015610d34578082015181840152602081019050610d19565b50505050905090810190601f168015610d615780820380516001836020036101000a031916815260200191505b509250505060405180910390f35b348015610d7b57600080fd5b50610dca60048036036040811015610d9257600080fd5b81019080803573ffffffffffffffffffffffffffffffffffffffff169060200190929190803515159060200190929190505050611d6f565b005b348015610dd857600080fd5b50610e0560048036036020811015610def57600080fd5b8101908080359060200190929190505050611f27565b604051808060200185151515158152602001848152602001838152602001828103825286818151815260200191508051906020019080838360005b83811015610e5b578082015181840152602081019050610e40565b50505050905090810190601f168015610e885780820380516001836020036101000a031916815260200191505b509550505050505060405180910390f35b348015610ea557600080fd5b50610fa960048036036080811015610ebc57600080fd5b81019080803573ffffffffffffffffffffffffffffffffffffffff169060200190929190803573ffffffffffffffffffffffffffffffffffffffff1690602001909291908035906020019092919080359060200190640100000000811115610f2357600080fd5b820183602082011115610f3557600080fd5b80359060200191846001830284011164010000000083111715610f5757600080fd5b91908080601f016020809104026020016040519081016040528093929190818152602001838380828437600081840152601f19601f820116905080830192505050505050509192919290505050612032565b005b348015610fb757600080fd5b50610fe460048036036020811015610fce57600080fd5b81019080803590602001909291905050506120aa565b6040518082815260200191505060405180910390f35b34801561100657600080fd5b506110336004803603602081101561101d57600080fd5b81019080803590602001909291905050506120c2565b604051808215151515815260200191505060405180910390f35b34801561105957600080fd5b5061109c6004803603602081101561107057600080fd5b81019080803573ffffffffffffffffffffffffffffffffffffffff1690602001909291905050506120ec565b604051808215151515815260200191505060405180910390f35b3480156110c257600080fd5b506110ef600480360360208110156110d957600080fd5b8101908080359060200190929190505050612142565b6040518080602001828103825283818151815260200191508051906020019080838360005b8381101561112f578082015181840152602081019050611114565b50505050905090810190601f16801561115c5780820380516001836020036101000a031916815260200191505b509250505060405180910390f35b34801561117657600080fd5b5061117f612413565b6040518082815260200191505060405180910390f35b3480156111a157600080fd5b50611204600480360360408110156111b857600080fd5b81019080803573ffffffffffffffffffffffffffffffffffffffff169060200190929190803573ffffffffffffffffffffffffffffffffffffffff16906020019092919050505061241d565b604051808215151515815260200191505060405180910390f35b34801561122a57600080fd5b506112576004803603602081101561124157600080fd5b81019080803590602001909291905050506124b1565b005b6000806000837bffffffffffffffffffffffffffffffffffffffffffffffffffffffff19167bffffffffffffffffffffffffffffffffffffffffffffffffffffffff1916815260200190815260200160002060009054906101000a900460ff169050919050565b606060068054600181600116156101000203166002900480601f0160208091040260200160405190810160405280929190818152602001828054600181600116156101000203166002900480156113585780601f1061132d57610100808354040283529160200191611358565b820191906000526020600020905b81548152906001019060200180831161133b57829003601f168201915b5050505050905090565b600061136d8261256d565b6113c2576040517f08c379a000000000000000000000000000000000000000000000000000000000815260040180806020018281038252602c815260200180613c97602c913960400191505060405180910390fd5b6004600083815260200190815260200160002060009054906101000a900473ffffffffffffffffffffffffffffffffffffffff169050919050565b600f6020528060005260406000206000915090505481565b600061142082611a0e565b90508073ffffffffffffffffffffffffffffffffffffffff168373ffffffffffffffffffffffffffffffffffffffff1614156114a7576040517f08c379a0000000000000000000000000000000000000000000000000000000008152600401808060200182810382526021815260200180613d1b6021913960400191505060405180910390fd5b8073ffffffffffffffffffffffffffffffffffffffff166114c661258a565b73ffffffffffffffffffffffffffffffffffffffff1614806114f557506114f4816114ef61258a565b61241d565b5b61154a576040517f08c379a0000000000000000000000000000000000000000000000000000000008152600401808060200182810382526038815260200180613bea6038913960400191505060405180910390fd5b6115548383612592565b505050565b6000611565600261264b565b905090565b60106020528060005260406000206000915090505481565b600c600082815260200190815260200160002060009054906101000a900460ff16611615576040517f08c379a000000000000000000000000000000000000000000000000000000000815260040180806020018281038252600e8152602001807f6e6f74206f6e2061756374696f6e00000000000000000000000000000000000081525060200191505060405180910390fd5b61162861162182611a0e565b33836116f4565b50565b600061163687611a45565b8560106000600a5481526020019081526020016000208190555084600f6000600a548152602001908152602001600020819055508360116000600a54815260200190815260200160002060006101000a81548160ff0219169083151502179055508282600e6000600a54815260200190815260200160002091906116bb929190613a32565b50600a5490509695505050505050565b60006064905090565b600b6020528060005260406000206000915054906101000a900460ff1681565b6117056116ff61258a565b82612660565b61175a576040517f08c379a0000000000000000000000000000000000000000000000000000000008152600401808060200182810382526031815260200180613d3c6031913960400191505060405180910390fd5b611765838383612754565b505050565b60006117bd82600160008673ffffffffffffffffffffffffffffffffffffffff1673ffffffffffffffffffffffffffffffffffffffff16815260200190815260200160002061299790919063ffffffff16565b905092915050565b60006117d033611a45565b8560106000600a5481526020019081526020016000208190555084600f6000600a548152602001908152602001600020819055508360116000600a54815260200190815260200160002060006101000a81548160ff0219169083151502179055508282600e6000600a5481526020019081526020016000209190611855929190613a32565b50600a54905095945050505050565b6000600d6000838152602001908152602001600020549050919050565b600c6020528060005260406000206000915054906101000a900460ff1681565b6001600b60003373ffffffffffffffffffffffffffffffffffffffff1673ffffffffffffffffffffffffffffffffffffffff16815260200190815260200160002060006101000a81548160ff021916908315150217905550565b61191683838360405180602001604052806000815250612032565b505050565b600e6020528060005260406000206000915090508054600181600116156101000203166002900480601f0160208091040260200160405190810160405280929190818152602001828054600181600116156101000203166002900480156119c35780601f10611998576101008083540402835291602001916119c3565b820191906000526020600020905b8154815290600101906020018083116119a657829003601f168201915b505050505081565b6000806119e28360026129b190919063ffffffff16565b50905080915050919050565b60116020528060005260406000206000915054906101000a900460ff1681565b6000611a3e82604051806060016040528060298152602001613c4c6029913960026129e09092919063ffffffff16565b9050919050565b6001600a60008282540192505081905550611a6281600a546129ff565b50565b606060098054600181600116156101000203166002900480601f016020809104026020016040519081016040528092919081815260200182805460018160011615610100020316600290048015611afd5780601f10611ad257610100808354040283529160200191611afd565b820191906000526020600020905b815481529060010190602001808311611ae057829003601f168201915b5050505050905090565b60008073ffffffffffffffffffffffffffffffffffffffff168273ffffffffffffffffffffffffffffffffffffffff161415611b8e576040517f08c379a000000000000000000000000000000000000000000000000000000000815260040180806020018281038252602a815260200180613c22602a913960400191505060405180910390fd5b611bd5600160008473ffffffffffffffffffffffffffffffffffffffff1673ffffffffffffffffffffffffffffffffffffffff168152602001908152602001600020612bf3565b9050919050565b3373ffffffffffffffffffffffffffffffffffffffff16611bfc83611a0e565b73ffffffffffffffffffffffffffffffffffffffff1614611c1c57600080fd5b6001600c600084815260200190815260200160002060006101000a81548160ff02191690831515021790555080600d6000848152602001908152602001600020819055505050565b6001600a60008282540192505081905550611c8181600a546129ff565b6001600c6000600a54815260200190815260200160002060006101000a81548160ff0219169083151502179055506064600d6000600a5481526020019081526020016000208190555050565b606060078054600181600116156101000203166002900480601f016020809104026020016040519081016040528092919081815260200182805460018160011615610100020316600290048015611d655780601f10611d3a57610100808354040283529160200191611d65565b820191906000526020600020905b815481529060010190602001808311611d4857829003601f168201915b5050505050905090565b611d7761258a565b73ffffffffffffffffffffffffffffffffffffffff168273ffffffffffffffffffffffffffffffffffffffff161415611e18576040517f08c379a00000000000000000000000000000000000000000000000000000000081526004018080602001828103825260198152602001807f4552433732313a20617070726f766520746f2063616c6c65720000000000000081525060200191505060405180910390fd5b8060056000611e2561258a565b73ffffffffffffffffffffffffffffffffffffffff1673ffffffffffffffffffffffffffffffffffffffff16815260200190815260200160002060008473ffffffffffffffffffffffffffffffffffffffff1673ffffffffffffffffffffffffffffffffffffffff16815260200190815260200160002060006101000a81548160ff0219169083151502179055508173ffffffffffffffffffffffffffffffffffffffff16611ed261258a565b73ffffffffffffffffffffffffffffffffffffffff167f17307eab39ab6107e8899845ad3d59bd9653f200f220920489ca2b5937696c3183604051808215151515815260200191505060405180910390a35050565b60606000806000600e60008681526020019081526020016000208054600181600116156101000203166002900480601f016020809104026020016040519081016040528092919081815260200182805460018160011615610100020316600290048015611fd55780601f10611faa57610100808354040283529160200191611fd5565b820191906000526020600020905b815481529060010190602001808311611fb857829003601f168201915b505050505093506011600086815260200190815260200160002060009054906101000a900460ff169250600f6000868152602001908152602001600020549150601060008681526020019081526020016000205490509193509193565b61204361203d61258a565b83612660565b612098576040517f08c379a0000000000000000000000000000000000000000000000000000000008152600401808060200182810382526031815260200180613d3c6031913960400191505060405180910390fd5b6120a484848484612c08565b50505050565b600d6020528060005260406000206000915090505481565b6000600c600083815260200190815260200160002060009054906101000a900460ff169050919050565b6000600b60003373ffffffffffffffffffffffffffffffffffffffff1673ffffffffffffffffffffffffffffffffffffffff16815260200190815260200160002060009054906101000a900460ff169050919050565b606061214d8261256d565b6121a2576040517f08c379a000000000000000000000000000000000000000000000000000000000815260040180806020018281038252602f815260200180613cec602f913960400191505060405180910390fd5b6060600860008481526020019081526020016000208054600181600116156101000203166002900480601f01602080910402602001604051908101604052809291908181526020018280546001816001161561010002031660029004801561224b5780601f106122205761010080835404028352916020019161224b565b820191906000526020600020905b81548152906001019060200180831161222e57829003601f168201915b50505050509050606061225c611a65565b905060008151141561227257819250505061240e565b6000825111156123435780826040516020018083805190602001908083835b602083106122b45780518252602082019150602081019050602083039250612291565b6001836020036101000a03801982511681845116808217855250505050505090500182805190602001908083835b6020831061230557805182526020820191506020810190506020830392506122e2565b6001836020036101000a038019825116818451168082178552505050505050905001925050506040516020818303038152906040529250505061240e565b8061234d85612c7a565b6040516020018083805190602001908083835b602083106123835780518252602082019150602081019050602083039250612360565b6001836020036101000a03801982511681845116808217855250505050505090500182805190602001908083835b602083106123d457805182526020820191506020810190506020830392506123b1565b6001836020036101000a03801982511681845116808217855250505050505090500192505050604051602081830303815290604052925050505b919050565b6000600a54905090565b6000600560008473ffffffffffffffffffffffffffffffffffffffff1673ffffffffffffffffffffffffffffffffffffffff16815260200190815260200160002060008373ffffffffffffffffffffffffffffffffffffffff1673ffffffffffffffffffffffffffffffffffffffff16815260200190815260200160002060009054906101000a900460ff16905092915050565b3373ffffffffffffffffffffffffffffffffffffffff166124d182611a0e565b73ffffffffffffffffffffffffffffffffffffffff16146124f157600080fd5b6124fa81612daa565b600e600082815260200190815260200160002060006125199190613ab2565b600f60008281526020019081526020016000206000905560106000828152602001908152602001600020600090556011600082815260200190815260200160002060006101000a81549060ff021916905550565b6000612583826002612ee490919063ffffffff16565b9050919050565b600033905090565b816004600083815260200190815260200160002060006101000a81548173ffffffffffffffffffffffffffffffffffffffff021916908373ffffffffffffffffffffffffffffffffffffffff160217905550808273ffffffffffffffffffffffffffffffffffffffff1661260583611a0e565b73ffffffffffffffffffffffffffffffffffffffff167f8c5be1e5ebec7d5bd14f71427d1e84f3dd0314c0f7b2291e5b200ac8c7c3b92560405160405180910390a45050565b600061265982600001612efe565b9050919050565b600061266b8261256d565b6126c0576040517f08c379a000000000000000000000000000000000000000000000000000000000815260040180806020018281038252602c815260200180613bbe602c913960400191505060405180910390fd5b60006126cb83611a0e565b90508073ffffffffffffffffffffffffffffffffffffffff168473ffffffffffffffffffffffffffffffffffffffff16148061273a57508373ffffffffffffffffffffffffffffffffffffffff1661272284611362565b73ffffffffffffffffffffffffffffffffffffffff16145b8061274b575061274a818561241d565b5b91505092915050565b8273ffffffffffffffffffffffffffffffffffffffff1661277482611a0e565b73ffffffffffffffffffffffffffffffffffffffff16146127e0576040517f08c379a0000000000000000000000000000000000000000000000000000000008152600401808060200182810382526029815260200180613cc36029913960400191505060405180910390fd5b600073ffffffffffffffffffffffffffffffffffffffff168273ffffffffffffffffffffffffffffffffffffffff161415612866576040517f08c379a0000000000000000000000000000000000000000000000000000000008152600401808060200182810382526024815260200180613b746024913960400191505060405180910390fd5b612871838383612f0f565b61287c600082612592565b6128cd81600160008673ffffffffffffffffffffffffffffffffffffffff1673ffffffffffffffffffffffffffffffffffffffff168152602001908152602001600020612f1490919063ffffffff16565b5061291f81600160008573ffffffffffffffffffffffffffffffffffffffff1673ffffffffffffffffffffffffffffffffffffffff168152602001908152602001600020612f2e90919063ffffffff16565b5061293681836002612f489092919063ffffffff16565b50808273ffffffffffffffffffffffffffffffffffffffff168473ffffffffffffffffffffffffffffffffffffffff167fddf252ad1be2c89b69c2b068fc378daa952ba7f163c4a11628f55a4df523b3ef60405160405180910390a4505050565b60006129a68360000183612f7d565b60001c905092915050565b6000806000806129c48660000186613000565b915091508160001c8160001c8090509350935050509250929050565b60006129f3846000018460001b84613099565b60001c90509392505050565b600073ffffffffffffffffffffffffffffffffffffffff168273ffffffffffffffffffffffffffffffffffffffff161415612aa2576040517f08c379a00000000000000000000000000000000000000000000000000000000081526004018080602001828103825260208152602001807f4552433732313a206d696e7420746f20746865207a65726f206164647265737381525060200191505060405180910390fd5b612aab8161256d565b15612b1e576040517f08c379a000000000000000000000000000000000000000000000000000000000815260040180806020018281038252601c8152602001807f4552433732313a20746f6b656e20616c7265616479206d696e7465640000000081525060200191505060405180910390fd5b612b2a60008383612f0f565b612b7b81600160008573ffffffffffffffffffffffffffffffffffffffff1673ffffffffffffffffffffffffffffffffffffffff168152602001908152602001600020612f2e90919063ffffffff16565b50612b9281836002612f489092919063ffffffff16565b50808273ffffffffffffffffffffffffffffffffffffffff16600073ffffffffffffffffffffffffffffffffffffffff167fddf252ad1be2c89b69c2b068fc378daa952ba7f163c4a11628f55a4df523b3ef60405160405180910390a45050565b6000612c018260000161318f565b9050919050565b612c13848484612754565b612c1f848484846131a0565b612c74576040517f08c379a0000000000000000000000000000000000000000000000000000000008152600401808060200182810382526032815260200180613b426032913960400191505060405180910390fd5b50505050565b60606000821415612cc2576040518060400160405280600181526020017f30000000000000000000000000000000000000000000000000000000000000008152509050612da5565b600082905060005b60008214612cec578080600101915050600a8281612ce457fe5b049150612cca565b6060816040519080825280601f01601f191660200182016040528015612d215781602001600182028038833980820191505090505b50905060006001830390508593505b60008414612d9d57600a8481612d4257fe5b0660300160f81b82828060019003935081518110612d5c57fe5b60200101907effffffffffffffffffffffffffffffffffffffffffffffffffffffffffffff1916908160001a905350600a8481612d9557fe5b049350612d30565b819450505050505b919050565b6000612db582611a0e565b9050612dc381600084612f0f565b612dce600083612592565b60006008600084815260200190815260200160002080546001816001161561010002031660029004905014612e1d57600860008381526020019081526020016000206000612e1c9190613ab2565b5b612e6e82600160008473ffffffffffffffffffffffffffffffffffffffff1673ffffffffffffffffffffffffffffffffffffffff168152602001908152602001600020612f1490919063ffffffff16565b50612e838260026133e590919063ffffffff16565b5081600073ffffffffffffffffffffffffffffffffffffffff168273ffffffffffffffffffffffffffffffffffffffff167fddf252ad1be2c89b69c2b068fc378daa952ba7f163c4a11628f55a4df523b3ef60405160405180910390a45050565b6000612ef6836000018360001b6133ff565b905092915050565b600081600001805490509050919050565b505050565b6000612f26836000018360001b613422565b905092915050565b6000612f40836000018360001b61350a565b905092915050565b6000612f74846000018460001b8473ffffffffffffffffffffffffffffffffffffffff1660001b61357a565b90509392505050565b600081836000018054905011612fde576040517f08c379a0000000000000000000000000000000000000000000000000000000008152600401808060200182810382526022815260200180613b206022913960400191505060405180910390fd5b826000018281548110612fed57fe5b9060005260206000200154905092915050565b60008082846000018054905011613062576040517f08c379a0000000000000000000000000000000000000000000000000000000008152600401808060200182810382526022815260200180613c756022913960400191505060405180910390fd5b600084600001848154811061307357fe5b906000526020600020906002020190508060000154816001015492509250509250929050565b60008084600101600085815260200190815260200160002054905060008114158390613160576040517f08c379a00000000000000000000000000000000000000000000000000000000081526004018080602001828103825283818151815260200191508051906020019080838360005b8381101561312557808201518184015260208101905061310a565b50505050905090810190601f1680156131525780820380516001836020036101000a031916815260200191505b509250505060405180910390fd5b5084600001600182038154811061317357fe5b9060005260206000209060020201600101549150509392505050565b600081600001805490509050919050565b60006131c18473ffffffffffffffffffffffffffffffffffffffff16613656565b6131ce57600190506133dd565b606061336463150b7a0260e01b6131e361258a565b888787604051602401808573ffffffffffffffffffffffffffffffffffffffff1673ffffffffffffffffffffffffffffffffffffffff1681526020018473ffffffffffffffffffffffffffffffffffffffff1673ffffffffffffffffffffffffffffffffffffffff16815260200183815260200180602001828103825283818151815260200191508051906020019080838360005b83811015613293578082015181840152602081019050613278565b50505050905090810190601f1680156132c05780820380516001836020036101000a031916815260200191505b5095505050505050604051602081830303815290604052907bffffffffffffffffffffffffffffffffffffffffffffffffffffffff19166020820180517bffffffffffffffffffffffffffffffffffffffffffffffffffffffff8381831617835250505050604051806060016040528060328152602001613b42603291398773ffffffffffffffffffffffffffffffffffffffff166136699092919063ffffffff16565b9050600081806020019051602081101561337d57600080fd5b8101908080519060200190929190505050905063150b7a0260e01b7bffffffffffffffffffffffffffffffffffffffffffffffffffffffff1916817bffffffffffffffffffffffffffffffffffffffffffffffffffffffff191614925050505b949350505050565b60006133f7836000018360001b613681565b905092915050565b600080836001016000848152602001908152602001600020541415905092915050565b600080836001016000848152602001908152602001600020549050600081146134fe576000600182039050600060018660000180549050039050600086600001828154811061346d57fe5b906000526020600020015490508087600001848154811061348a57fe5b90600052602060002001819055506001830187600101600083815260200190815260200160002081905550866000018054806134c257fe5b60019003818190600052602060002001600090559055866001016000878152602001908152602001600020600090556001945050505050613504565b60009150505b92915050565b6000613516838361379a565b61356f578260000182908060018154018082558091505060019003906000526020600020016000909190919091505582600001805490508360010160008481526020019081526020016000208190555060019050613574565b600090505b92915050565b60008084600101600085815260200190815260200160002054905060008114156136215784600001604051806040016040528086815260200185815250908060018154018082558091505060019003906000526020600020906002020160009091909190915060008201518160000155602082015181600101555050846000018054905085600101600086815260200190815260200160002081905550600191505061364f565b8285600001600183038154811061363457fe5b90600052602060002090600202016001018190555060009150505b9392505050565b600080823b905060008111915050919050565b606061367884846000856137bd565b90509392505050565b6000808360010160008481526020019081526020016000205490506000811461378e57600060018203905060006001866000018054905003905060008660000182815481106136cc57fe5b90600052602060002090600202019050808760000184815481106136ec57fe5b906000526020600020906002020160008201548160000155600182015481600101559050506001830187600101600083600001548152602001908152602001600020819055508660000180548061373f57fe5b6001900381819060005260206000209060020201600080820160009055600182016000905550509055866001016000878152602001908152602001600020600090556001945050505050613794565b60009150505b92915050565b600080836001016000848152602001908152602001600020541415905092915050565b606082471015613818576040517f08c379a0000000000000000000000000000000000000000000000000000000008152600401808060200182810382526026815260200180613b986026913960400191505060405180910390fd5b61382185613656565b613893576040517f08c379a000000000000000000000000000000000000000000000000000000000815260040180806020018281038252601d8152602001807f416464726573733a2063616c6c20746f206e6f6e2d636f6e747261637400000081525060200191505060405180910390fd5b600060608673ffffffffffffffffffffffffffffffffffffffff1685876040518082805190602001908083835b602083106138e357805182526020820191506020810190506020830392506138c0565b6001836020036101000a03801982511681845116808217855250505050505090500191505060006040518083038185875af1925050503d8060008114613945576040519150601f19603f3d011682016040523d82523d6000602084013e61394a565b606091505b509150915061395a828286613966565b92505050949350505050565b6060831561397657829050613a2b565b6000835111156139895782518084602001fd5b816040517f08c379a00000000000000000000000000000000000000000000000000000000081526004018080602001828103825283818151815260200191508051906020019080838360005b838110156139f05780820151818401526020810190506139d5565b50505050905090810190601f168015613a1d5780820380516001836020036101000a031916815260200191505b509250505060405180910390fd5b9392505050565b828054600181600116156101000203166002900490600052602060002090601f016020900481019282601f10613a7357803560ff1916838001178555613aa1565b82800160010185558215613aa1579182015b82811115613aa0578235825591602001919060010190613a85565b5b509050613aae9190613afa565b5090565b50805460018160011615610100020316600290046000825580601f10613ad85750613af7565b601f016020900490600052602060002090810190613af69190613afa565b5b50565b613b1c91905b80821115613b18576000816000905550600101613b00565b5090565b9056fe456e756d657261626c655365743a20696e646578206f7574206f6620626f756e64734552433732313a207472616e7366657220746f206e6f6e20455243373231526563656976657220696d706c656d656e7465724552433732313a207472616e7366657220746f20746865207a65726f2061646472657373416464726573733a20696e73756666696369656e742062616c616e636520666f722063616c6c4552433732313a206f70657261746f7220717565727920666f72206e6f6e6578697374656e7420746f6b656e4552433732313a20617070726f76652063616c6c6572206973206e6f74206f776e6572206e6f7220617070726f76656420666f7220616c6c4552433732313a2062616c616e636520717565727920666f7220746865207a65726f20616464726573734552433732313a206f776e657220717565727920666f72206e6f6e6578697374656e7420746f6b656e456e756d657261626c654d61703a20696e646578206f7574206f6620626f756e64734552433732313a20617070726f76656420717565727920666f72206e6f6e6578697374656e7420746f6b656e4552433732313a207472616e73666572206f6620746f6b656e2074686174206973206e6f74206f776e4552433732314d657461646174613a2055524920717565727920666f72206e6f6e6578697374656e7420746f6b656e4552433732313a20617070726f76616c20746f2063757272656e74206f776e65724552433732313a207472616e736665722063616c6c6572206973206e6f74206f776e6572206e6f7220617070726f766564a2646970667358221220572715556f41f1a7a43b1664f0449f4faaa9b5239a68afadfd218bdbf7a4e24e64736f6c63430006020033",
  "source": "pragma solidity ^0.6.0;\nimport \"@openzeppelin/contracts/token/ERC721/ERC721.sol\";\n\n\ncontract ExerciceSolution is ERC721\n{\n    uint actualIdx;\n\n    mapping(address => bool) public breeders;\n    mapping(uint => bool) public onAuction;\n    mapping(uint => uint) public prices;\n\n    mapping(uint => string) public names;\n    mapping(uint => uint) public legs;\n    mapping(uint => uint) public sex;\n    mapping(uint => bool) public wings;\n\n\tconstructor (string memory name_, string memory symbol_) public ERC721(name_, symbol_)\n    {\n        actualIdx = 0;\n    }\n\n    function mint(address _to) public {\n        actualIdx += 1;\n        _mint(_to, actualIdx);\n    }\n\n    function mintAndPutForSale(address _to) public {\n        actualIdx += 1;\n        _mint(_to, actualIdx);\n        onAuction[actualIdx] = true;\n        prices[actualIdx] = 100;\n    }\n\n    function getActualIdx() external view returns (uint256) {\n        return actualIdx;\n    }\n\n\tfunction isBreeder(address account) external returns (bool) {\n        return breeders[msg.sender];\n    }\n\n    function registrationPrice() external returns (uint256) {\n        return 100;\n    }\n\n    function registerMeAsBreeder() external payable {\n        breeders[msg.sender] = true;\n    }\n\n    function declareAnimalToOwner(address owner, uint256 sex_, uint256 legs_, bool wings_, string calldata name_) external returns (uint256) {\n        mint(owner);\n\n        sex[actualIdx] = sex_;\n        legs[actualIdx] = legs_;\n        wings[actualIdx] = wings_;\n        names[actualIdx] = name_;\n\n        return actualIdx;\n    }\n\n    function declareAnimal(uint256 sex_, uint256 legs_, bool wings_, string calldata name_) external returns (uint256) {\n        mint(msg.sender);\n\n        sex[actualIdx] = sex_;\n        legs[actualIdx] = legs_;\n        wings[actualIdx] = wings_;\n        names[actualIdx] = name_;\n\n        return actualIdx;\n    }\n\n    function getAnimalCharacteristics(uint animalNumber) external returns (string memory _name, bool _wings, uint _legs, uint _sex) {\n        _name = names[animalNumber];\n        _wings = wings[animalNumber];\n        _legs = legs[animalNumber];\n        _sex = sex[animalNumber];\n    }\n\n\tfunction declareDeadAnimal(uint animalNumber) external {\n        require(ownerOf(animalNumber) == msg.sender);\n        _burn(animalNumber);\n        delete names[animalNumber];\n        delete legs[animalNumber];\n        delete sex[animalNumber];\n        delete wings[animalNumber];\n    }\n\n\t// Selling functions\n\tfunction isAnimalForSale(uint animalNumbregistrationPriceer) external view returns (bool) {\n        return onAuction[animalNumbregistrationPriceer];\n    }\n\n\tfunction animalPrice(uint animalNumber) external view returns (uint256) {\n        return prices[animalNumber];\n    }\n\n\tfunction buyAnimal(uint animalNumber) external payable {\n        require(onAuction[animalNumber], \"not on auction\");\n        transferFrom(ownerOf(animalNumber), msg.sender, animalNumber);\n    }\n\n\tfunction offerForSale(uint animalNumber, uint price) external {\n        require(ownerOf(animalNumber) == msg.sender);\n        onAuction[animalNumber] = true;\n        prices[animalNumber] = price;\n    }\n\n\t// Reproduction functions\n\n\t// function declareAnimalWithParents(uint256 sex, uint256 legs, bool wings, string calldata name, uint parent1, uint parent2) external returns (uint256) {\n    //     return 3;\n    // }\n\n\t// function getParents(uint animalNumber) external returns (uint256, uint256) {\n    //     return (1,2);\n    // }\n\n\t// function canReproduce(uint animalNumber) external returns (bool) {\n    //     return true;\n    // }\n\n\t// function reproductionPrice(uint animalNumber) external view returns (uint256) {\n    //     return 5;\n    // }\n\n\t// function offerForReproduction(uint animalNumber, uint priceOfReproduction) external returns (uint256) {\n    //     return 1;\n    // }\n\n\t// function authorizedBreederToReproduce(uint animalNumber) external returns (address) {\n    //     return msg.sender;\n    // }\n\n\t// function payForReproduction(uint animalNumber) external payable {\n        \n    // }\n\n\n\t\n}\n",
  "sourcePath": "/home/pibastte/Documents/Cours/BlockChainProgramming/erc721-101/contracts/ExerciceSolution.sol",
  "compiler": {
    "name": "solc",
    "version": "0.6.2+commit.bacdbe57.Emscripten.clang"
  },
  "schemaVersion": "3.4.3",
  "updatedAt": "2021-12-10T21:55:24.317Z",
  "networkType": "ethereum",
  "devdoc": {
    "methods": {
      "approve(address,uint256)": {
        "details": "See {IERC721-approve}."
      },
      "balanceOf(address)": {
        "details": "See {IERC721-balanceOf}."
      },
      "baseURI()": {
        "details": "Returns the base URI set via {_setBaseURI}. This will be automatically added as a prefix in {tokenURI} to each token's URI, or to the token ID if no specific URI is set for that token ID."
      },
      "getApproved(uint256)": {
        "details": "See {IERC721-getApproved}."
      },
      "isApprovedForAll(address,address)": {
        "details": "See {IERC721-isApprovedForAll}."
      },
      "name()": {
        "details": "See {IERC721Metadata-name}."
      },
      "ownerOf(uint256)": {
        "details": "See {IERC721-ownerOf}."
      },
      "safeTransferFrom(address,address,uint256)": {
        "details": "See {IERC721-safeTransferFrom}."
      },
      "safeTransferFrom(address,address,uint256,bytes)": {
        "details": "See {IERC721-safeTransferFrom}."
      },
      "setApprovalForAll(address,bool)": {
        "details": "See {IERC721-setApprovalForAll}."
      },
      "supportsInterface(bytes4)": {
        "details": "See {IERC165-supportsInterface}.     * Time complexity O(1), guaranteed to always use less than 30 000 gas."
      },
      "symbol()": {
        "details": "See {IERC721Metadata-symbol}."
      },
      "tokenByIndex(uint256)": {
        "details": "See {IERC721Enumerable-tokenByIndex}."
      },
      "tokenOfOwnerByIndex(address,uint256)": {
        "details": "See {IERC721Enumerable-tokenOfOwnerByIndex}."
      },
      "tokenURI(uint256)": {
        "details": "See {IERC721Metadata-tokenURI}."
      },
      "totalSupply()": {
        "details": "See {IERC721Enumerable-totalSupply}."
      },
      "transferFrom(address,address,uint256)": {
        "details": "See {IERC721-transferFrom}."
      }
    }
  },
  "userdoc": {
    "methods": {}
  }
}